{
  "contractName": "Exchange",
  "abi": [
    {
      "inputs": [
        {
          "internalType": "address",
          "name": "_base",
          "type": "address"
        },
        {
          "internalType": "address",
          "name": "_quote",
          "type": "address"
        }
      ],
      "payable": false,
      "stateMutability": "nonpayable",
      "type": "constructor"
    },
    {
      "constant": true,
      "inputs": [
        {
          "internalType": "uint256",
          "name": "",
          "type": "uint256"
        }
      ],
      "name": "asks",
      "outputs": [
        {
          "internalType": "uint256",
          "name": "price",
          "type": "uint256"
        },
        {
          "internalType": "uint256",
          "name": "amount",
          "type": "uint256"
        },
        {
          "internalType": "address",
          "name": "sender",
          "type": "address"
        }
      ],
      "payable": false,
      "stateMutability": "view",
      "type": "function"
    },
    {
      "constant": true,
      "inputs": [],
      "name": "base",
      "outputs": [
        {
          "internalType": "address",
          "name": "",
          "type": "address"
        }
      ],
      "payable": false,
      "stateMutability": "view",
      "type": "function"
    },
    {
      "constant": true,
      "inputs": [
        {
          "internalType": "uint256",
          "name": "",
          "type": "uint256"
        }
      ],
      "name": "bids",
      "outputs": [
        {
          "internalType": "uint256",
          "name": "price",
          "type": "uint256"
        },
        {
          "internalType": "uint256",
          "name": "amount",
          "type": "uint256"
        },
        {
          "internalType": "address",
          "name": "sender",
          "type": "address"
        }
      ],
      "payable": false,
      "stateMutability": "view",
      "type": "function"
    },
    {
      "constant": true,
      "inputs": [],
      "name": "quote",
      "outputs": [
        {
          "internalType": "address",
          "name": "",
          "type": "address"
        }
      ],
      "payable": false,
      "stateMutability": "view",
      "type": "function"
    },
    {
      "constant": true,
      "inputs": [
        {
          "internalType": "uint256",
          "name": "index",
          "type": "uint256"
        }
      ],
      "name": "getBid",
      "outputs": [
        {
          "internalType": "uint256",
          "name": "",
          "type": "uint256"
        },
        {
          "internalType": "uint256",
          "name": "",
          "type": "uint256"
        }
      ],
      "payable": false,
      "stateMutability": "view",
      "type": "function"
    },
    {
      "constant": true,
      "inputs": [
        {
          "internalType": "uint256",
          "name": "index",
          "type": "uint256"
        }
      ],
      "name": "getAsk",
      "outputs": [
        {
          "internalType": "uint256",
          "name": "",
          "type": "uint256"
        },
        {
          "internalType": "uint256",
          "name": "",
          "type": "uint256"
        }
      ],
      "payable": false,
      "stateMutability": "view",
      "type": "function"
    },
    {
      "constant": false,
      "inputs": [
        {
          "internalType": "uint256",
          "name": "_price",
          "type": "uint256"
        },
        {
          "internalType": "uint256",
          "name": "_amount",
          "type": "uint256"
        }
      ],
      "name": "buy",
      "outputs": [],
      "payable": false,
      "stateMutability": "nonpayable",
      "type": "function"
    },
    {
      "constant": false,
      "inputs": [
        {
          "internalType": "uint256",
          "name": "_price",
          "type": "uint256"
        },
        {
          "internalType": "uint256",
          "name": "_amount",
          "type": "uint256"
        }
      ],
      "name": "sell",
      "outputs": [],
      "payable": false,
      "stateMutability": "nonpayable",
      "type": "function"
    }
  ],
  "bytecode": "0x608060405234801561001057600080fd5b50604051611d2c380380611d2c8339818101604052604081101561003357600080fd5b81019080805190602001909291908051906020019092919050505081600260006101000a81548173ffffffffffffffffffffffffffffffffffffffff021916908373ffffffffffffffffffffffffffffffffffffffff16021790555080600360006101000a81548173ffffffffffffffffffffffffffffffffffffffff021916908373ffffffffffffffffffffffffffffffffffffffff1602179055505050611c4b806100e16000396000f3fe608060405234801561001057600080fd5b50600436106100885760003560e01c80636b42fbaf1161005b5780636b42fbaf14610218578063999b93af14610261578063d6febde8146102ab578063d79875eb146102e357610088565b80630b0c14931461008d5780633c889e6f146101095780634423c5f1146101525780635001f3b5146101ce575b600080fd5b6100b9600480360360208110156100a357600080fd5b810190808035906020019092919050505061031b565b604051808481526020018381526020018273ffffffffffffffffffffffffffffffffffffffff1673ffffffffffffffffffffffffffffffffffffffff168152602001935050505060405180910390f35b6101356004803603602081101561011f57600080fd5b8101908080359060200190929190505050610372565b604051808381526020018281526020019250505060405180910390f35b61017e6004803603602081101561016857600080fd5b81019080803590602001909291905050506103a7565b604051808481526020018381526020018273ffffffffffffffffffffffffffffffffffffffff1673ffffffffffffffffffffffffffffffffffffffff168152602001935050505060405180910390f35b6101d66103fe565b604051808273ffffffffffffffffffffffffffffffffffffffff1673ffffffffffffffffffffffffffffffffffffffff16815260200191505060405180910390f35b6102446004803603602081101561022e57600080fd5b8101908080359060200190929190505050610424565b604051808381526020018281526020019250505060405180910390f35b61026961045a565b604051808273ffffffffffffffffffffffffffffffffffffffff1673ffffffffffffffffffffffffffffffffffffffff16815260200191505060405180910390f35b6102e1600480360360408110156102c157600080fd5b810190808035906020019092919080359060200190929190505050610480565b005b610319600480360360408110156102f957600080fd5b810190808035906020019092919080359060200190929190505050610549565b005b6001818154811061032857fe5b90600052602060002090600302016000915090508060000154908060010154908060020160009054906101000a900473ffffffffffffffffffffffffffffffffffffffff16905083565b600080600080848154811061038357fe5b90600052602060002090600302019050806000015481600101549250925050915091565b600081815481106103b457fe5b90600052602060002090600302016000915090508060000154908060010154908060020160009054906101000a900473ffffffffffffffffffffffffffffffffffffffff16905083565b600260009054906101000a900473ffffffffffffffffffffffffffffffffffffffff1681565b60008060006001848154811061043657fe5b90600052602060002090600302019050806000015481600101549250925050915091565b600360009054906101000a900473ffffffffffffffffffffffffffffffffffffffff1681565b600081116104f6576040517f08c379a00000000000000000000000000000000000000000000000000000000081526004018080602001828103825260208152602001807f416d6f756e74206d7573742062652067726561746572207468616e207a65726f81525060200191505060405180910390fd5b600060018054905011801561052f57506001808080549050038154811061051957fe5b9060005260206000209060030201600001548210155b1561053957610545565b6105438282610613565b505b5050565b600081116105bf576040517f08c379a00000000000000000000000000000000000000000000000000000000081526004018080602001828103825260208152602001807f416d6f756e74206d7573742062652067726561746572207468616e207a65726f81525060200191505060405180910390fd5b600080805490501180156105f957506000600160008054905003815481106105e357fe5b9060005260206000209060030201600001548211155b156106035761060f565b61060d8282611116565b505b5050565b600080600080549050141561080057600060405180606001604052808581526020018481526020013373ffffffffffffffffffffffffffffffffffffffff1681525090806001815401808255809150509060018203906000526020600020906003020160009091929091909150600082015181600001556020820151816001015560408201518160020160006101000a81548173ffffffffffffffffffffffffffffffffffffffff021916908373ffffffffffffffffffffffffffffffffffffffff160217905550505050600360009054906101000a900473ffffffffffffffffffffffffffffffffffffffff1673ffffffffffffffffffffffffffffffffffffffff166323b872dd3330856040518463ffffffff1660e01b8152600401808473ffffffffffffffffffffffffffffffffffffffff1673ffffffffffffffffffffffffffffffffffffffff1681526020018373ffffffffffffffffffffffffffffffffffffffff1673ffffffffffffffffffffffffffffffffffffffff1681526020018281526020019350505050602060405180830381600087803b1580156107bb57600080fd5b505af11580156107cf573d6000803e3d6000fd5b505050506040513d60208110156107e557600080fd5b81019080805190602001909291905050505060019050611110565b6000600160008054905003905060008090505b818111610da75760008183038154811061082957fe5b906000526020600020906003020160000154851115610d9a576000811415610a2b57600060405180606001604052808781526020018681526020013373ffffffffffffffffffffffffffffffffffffffff1681525090806001815401808255809150509060018203906000526020600020906003020160009091929091909150600082015181600001556020820151816001015560408201518160020160006101000a81548173ffffffffffffffffffffffffffffffffffffffff021916908373ffffffffffffffffffffffffffffffffffffffff160217905550505050600360009054906101000a900473ffffffffffffffffffffffffffffffffffffffff1673ffffffffffffffffffffffffffffffffffffffff166323b872dd3330876040518463ffffffff1660e01b8152600401808473ffffffffffffffffffffffffffffffffffffffff1673ffffffffffffffffffffffffffffffffffffffff1681526020018373ffffffffffffffffffffffffffffffffffffffff1673ffffffffffffffffffffffffffffffffffffffff1681526020018281526020019350505050602060405180830381600087803b1580156109e457600080fd5b505af11580156109f8573d6000803e3d6000fd5b505050506040513d6020811015610a0e57600080fd5b810190808051906020019092919050505050600192505050611110565b6000808381548110610a3957fe5b90600052602060002090600302019080600181540180825580915050906001820390600052602060002090600302016000909192909190915060008201548160000155600182015481600101556002820160009054906101000a900473ffffffffffffffffffffffffffffffffffffffff168160020160006101000a81548173ffffffffffffffffffffffffffffffffffffffff021916908373ffffffffffffffffffffffffffffffffffffffff16021790555050505060008090505b81811015610bc657600081840381548110610b0d57fe5b9060005260206000209060030201600060018386030181548110610b2d57fe5b906000526020600020906003020160008201548160000155600182015481600101556002820160009054906101000a900473ffffffffffffffffffffffffffffffffffffffff168160020160006101000a81548173ffffffffffffffffffffffffffffffffffffffff021916908373ffffffffffffffffffffffffffffffffffffffff1602179055509050508080600101915050610af6565b5060405180606001604052808681526020018581526020013373ffffffffffffffffffffffffffffffffffffffff16815250600060018385030181548110610c0a57fe5b9060005260206000209060030201600082015181600001556020820151816001015560408201518160020160006101000a81548173ffffffffffffffffffffffffffffffffffffffff021916908373ffffffffffffffffffffffffffffffffffffffff160217905550905050600360009054906101000a900473ffffffffffffffffffffffffffffffffffffffff1673ffffffffffffffffffffffffffffffffffffffff166323b872dd3330876040518463ffffffff1660e01b8152600401808473ffffffffffffffffffffffffffffffffffffffff1673ffffffffffffffffffffffffffffffffffffffff1681526020018373ffffffffffffffffffffffffffffffffffffffff1673ffffffffffffffffffffffffffffffffffffffff1681526020018281526020019350505050602060405180830381600087803b158015610d5357600080fd5b505af1158015610d67573d6000803e3d6000fd5b505050506040513d6020811015610d7d57600080fd5b810190808051906020019092919050505050600192505050611110565b8080600101915050610813565b506000808281548110610db657fe5b90600052602060002090600302019080600181540180825580915050906001820390600052602060002090600302016000909192909190915060008201548160000155600182015481600101556002820160009054906101000a900473ffffffffffffffffffffffffffffffffffffffff168160020160006101000a81548173ffffffffffffffffffffffffffffffffffffffff021916908373ffffffffffffffffffffffffffffffffffffffff16021790555050505060008090505b60018201811015610f4657600081830381548110610e8d57fe5b9060005260206000209060030201600060018385030181548110610ead57fe5b906000526020600020906003020160008201548160000155600182015481600101556002820160009054906101000a900473ffffffffffffffffffffffffffffffffffffffff168160020160006101000a81548173ffffffffffffffffffffffffffffffffffffffff021916908373ffffffffffffffffffffffffffffffffffffffff1602179055509050508080600101915050610e73565b5060405180606001604052808581526020018481526020013373ffffffffffffffffffffffffffffffffffffffff1681525060008081548110610f8557fe5b9060005260206000209060030201600082015181600001556020820151816001015560408201518160020160006101000a81548173ffffffffffffffffffffffffffffffffffffffff021916908373ffffffffffffffffffffffffffffffffffffffff160217905550905050600360009054906101000a900473ffffffffffffffffffffffffffffffffffffffff1673ffffffffffffffffffffffffffffffffffffffff166323b872dd3330866040518463ffffffff1660e01b8152600401808473ffffffffffffffffffffffffffffffffffffffff1673ffffffffffffffffffffffffffffffffffffffff1681526020018373ffffffffffffffffffffffffffffffffffffffff1673ffffffffffffffffffffffffffffffffffffffff1681526020018281526020019350505050602060405180830381600087803b1580156110ce57600080fd5b505af11580156110e2573d6000803e3d6000fd5b505050506040513d60208110156110f857600080fd5b81019080805190602001909291905050505060019150505b92915050565b600080600180549050141561130357600160405180606001604052808581526020018481526020013373ffffffffffffffffffffffffffffffffffffffff1681525090806001815401808255809150509060018203906000526020600020906003020160009091929091909150600082015181600001556020820151816001015560408201518160020160006101000a81548173ffffffffffffffffffffffffffffffffffffffff021916908373ffffffffffffffffffffffffffffffffffffffff160217905550505050600260009054906101000a900473ffffffffffffffffffffffffffffffffffffffff1673ffffffffffffffffffffffffffffffffffffffff166323b872dd3330856040518463ffffffff1660e01b8152600401808473ffffffffffffffffffffffffffffffffffffffff1673ffffffffffffffffffffffffffffffffffffffff1681526020018373ffffffffffffffffffffffffffffffffffffffff1673ffffffffffffffffffffffffffffffffffffffff1681526020018281526020019350505050602060405180830381600087803b1580156112be57600080fd5b505af11580156112d2573d6000803e3d6000fd5b505050506040513d60208110156112e857600080fd5b81019080805190602001909291905050505060019050611c10565b60006001808054905003905060008090505b8181116118a75760018183038154811061132b57fe5b90600052602060002090600302016000015485101561189a57600081141561152d57600160405180606001604052808781526020018681526020013373ffffffffffffffffffffffffffffffffffffffff1681525090806001815401808255809150509060018203906000526020600020906003020160009091929091909150600082015181600001556020820151816001015560408201518160020160006101000a81548173ffffffffffffffffffffffffffffffffffffffff021916908373ffffffffffffffffffffffffffffffffffffffff160217905550505050600260009054906101000a900473ffffffffffffffffffffffffffffffffffffffff1673ffffffffffffffffffffffffffffffffffffffff166323b872dd3330876040518463ffffffff1660e01b8152600401808473ffffffffffffffffffffffffffffffffffffffff1673ffffffffffffffffffffffffffffffffffffffff1681526020018373ffffffffffffffffffffffffffffffffffffffff1673ffffffffffffffffffffffffffffffffffffffff1681526020018281526020019350505050602060405180830381600087803b1580156114e657600080fd5b505af11580156114fa573d6000803e3d6000fd5b505050506040513d602081101561151057600080fd5b810190808051906020019092919050505050600192505050611c10565b600180838154811061153b57fe5b90600052602060002090600302019080600181540180825580915050906001820390600052602060002090600302016000909192909190915060008201548160000155600182015481600101556002820160009054906101000a900473ffffffffffffffffffffffffffffffffffffffff168160020160006101000a81548173ffffffffffffffffffffffffffffffffffffffff021916908373ffffffffffffffffffffffffffffffffffffffff16021790555050505060008090505b818110156116c75760018184038154811061160f57fe5b9060005260206000209060030201600180838603018154811061162e57fe5b906000526020600020906003020160008201548160000155600182015481600101556002820160009054906101000a900473ffffffffffffffffffffffffffffffffffffffff168160020160006101000a81548173ffffffffffffffffffffffffffffffffffffffff021916908373ffffffffffffffffffffffffffffffffffffffff16021790555090505080806001019150506115f8565b5060405180606001604052808681526020018581526020013373ffffffffffffffffffffffffffffffffffffffff16815250600180838503018154811061170a57fe5b9060005260206000209060030201600082015181600001556020820151816001015560408201518160020160006101000a81548173ffffffffffffffffffffffffffffffffffffffff021916908373ffffffffffffffffffffffffffffffffffffffff160217905550905050600260009054906101000a900473ffffffffffffffffffffffffffffffffffffffff1673ffffffffffffffffffffffffffffffffffffffff166323b872dd3330876040518463ffffffff1660e01b8152600401808473ffffffffffffffffffffffffffffffffffffffff1673ffffffffffffffffffffffffffffffffffffffff1681526020018373ffffffffffffffffffffffffffffffffffffffff1673ffffffffffffffffffffffffffffffffffffffff1681526020018281526020019350505050602060405180830381600087803b15801561185357600080fd5b505af1158015611867573d6000803e3d6000fd5b505050506040513d602081101561187d57600080fd5b810190808051906020019092919050505050600192505050611c10565b8080600101915050611315565b5060018082815481106118b657fe5b90600052602060002090600302019080600181540180825580915050906001820390600052602060002090600302016000909192909190915060008201548160000155600182015481600101556002820160009054906101000a900473ffffffffffffffffffffffffffffffffffffffff168160020160006101000a81548173ffffffffffffffffffffffffffffffffffffffff021916908373ffffffffffffffffffffffffffffffffffffffff16021790555050505060008090505b60018201811015611a455760018183038154811061198d57fe5b906000526020600020906003020160018083850301815481106119ac57fe5b906000526020600020906003020160008201548160000155600182015481600101556002820160009054906101000a900473ffffffffffffffffffffffffffffffffffffffff168160020160006101000a81548173ffffffffffffffffffffffffffffffffffffffff021916908373ffffffffffffffffffffffffffffffffffffffff1602179055509050508080600101915050611973565b5060405180606001604052808581526020018481526020013373ffffffffffffffffffffffffffffffffffffffff168152506001600081548110611a8557fe5b9060005260206000209060030201600082015181600001556020820151816001015560408201518160020160006101000a81548173ffffffffffffffffffffffffffffffffffffffff021916908373ffffffffffffffffffffffffffffffffffffffff160217905550905050600260009054906101000a900473ffffffffffffffffffffffffffffffffffffffff1673ffffffffffffffffffffffffffffffffffffffff166323b872dd3330866040518463ffffffff1660e01b8152600401808473ffffffffffffffffffffffffffffffffffffffff1673ffffffffffffffffffffffffffffffffffffffff1681526020018373ffffffffffffffffffffffffffffffffffffffff1673ffffffffffffffffffffffffffffffffffffffff1681526020018281526020019350505050602060405180830381600087803b158015611bce57600080fd5b505af1158015611be2573d6000803e3d6000fd5b505050506040513d6020811015611bf857600080fd5b81019080805190602001909291905050505060019150505b9291505056fea265627a7a723158205aeaffd36a2db146d5379ef624665a06dac65ee9947429f8972fdbaa85b9b76764736f6c63430005100032",
  "source": "pragma solidity >=0.4.21 <0.7.0;\n\ninterface ERC20 {\n    function totalSupply() external view returns (uint256);\n    function balanceOf(address tokenOwner)\n        external\n        view\n        returns (uint256 balance);\n    function allowance(address tokenOwner, address spender)\n        external\n        view\n        returns (uint256 remaining);\n    function transfer(address to, uint256 tokens)\n        external\n        returns (bool success);\n    function approve(address spender, uint256 tokens)\n        external\n        returns (bool success);\n    function transferFrom(address from, address to, uint256 tokens)\n        external\n        returns (bool success);\n    event Transfer(address indexed from, address indexed to, uint256 tokens);\n    event Approval(\n        address indexed tokenOwner,\n        address indexed spender,\n        uint256 tokens\n    );\n}\n\ncontract Exchange {\n    Order[] public bids;\n    Order[] public asks;\n\n    address public base;\n    address public quote;\n\n    struct Order {\n        uint256 price;\n        uint256 amount;\n        address sender;\n    }\n\n    constructor(address _base, address _quote) public {\n        base = _base;\n        quote = _quote;\n    }\n\n    function getBid(uint256 index) public view returns (uint256, uint256) {\n        Order storage bid = bids[index];\n        return (bid.price, bid.amount);\n    }\n\n    function getAsk(uint256 index) public view returns (uint256, uint256) {\n        Order storage ask = asks[index];\n        return (ask.price, ask.amount);\n    }\n\n    function buy(uint256 _price, uint256 _amount) public {\n        require(_amount > 0, \"Amount must be greater than zero\");\n\n        if (asks.length > 0 && _price >= asks[asks.length - 1].price) {\n            // Match Orders\n            // Transfer from\n            // Delete Order From Sellbook\n            // Adjust Sum\n        } else {\n            addToBids(_price, _amount);\n        }\n    }\n\n    function sell(uint256 _price, uint256 _amount) public {\n        require(_amount > 0, \"Amount must be greater than zero\");\n\n        if (bids.length > 0 && _price <= bids[bids.length - 1].price) {\n            // Match Orders\n            // Transfer from\n            // Delete Order From BuyBook\n            // Adjust Sum\n        } else {\n            addToAsks(_price, _amount);\n        }\n    }\n\n    function addToBids(uint256 _price, uint256 _amount)\n        private\n        returns (bool success)\n    {\n        if (bids.length == 0) {\n            bids.push(\n                Order({price: _price, amount: _amount, sender: msg.sender})\n            );\n            ERC20(quote).transferFrom(msg.sender, address(this), _amount);\n            return true;\n        }\n        uint256 innerLength = bids.length - 1;\n        for (uint256 i = 0; i <= innerLength; i++) {\n            if (_price > bids[innerLength - i].price) {\n                if (i == 0) {\n                    bids.push(\n                        Order({\n                            price: _price,\n                            amount: _amount,\n                            sender: msg.sender\n                        })\n                    );\n                    ERC20(quote).transferFrom(\n                        msg.sender,\n                        address(this),\n                        _amount\n                    );\n                    return true;\n                } else {\n                    bids.push(bids[innerLength]);\n                    for (uint256 j = 0; j < i; j++) {\n                        bids[innerLength - j + 1] = bids[innerLength - j];\n                    }\n                    bids[innerLength - i + 1] = Order({\n                        price: _price,\n                        amount: _amount,\n                        sender: msg.sender\n                    });\n                    ERC20(quote).transferFrom(\n                        msg.sender,\n                        address(this),\n                        _amount\n                    );\n                    return true;\n                }\n            }\n        }\n        bids.push(bids[innerLength]);\n        for (uint256 k = 0; k < innerLength + 1; k++) {\n            bids[innerLength - k + 1] = bids[innerLength - k];\n        }\n        bids[0] = Order({price: _price, amount: _amount, sender: msg.sender});\n        ERC20(quote).transferFrom(msg.sender, address(this), _amount);\n        return true;\n\n    }\n\n    function addToAsks(uint256 _price, uint256 _amount)\n        private\n        returns (bool success)\n    {\n        if (asks.length == 0) {\n            asks.push(\n                Order({price: _price, amount: _amount, sender: msg.sender})\n            );\n            ERC20(base).transferFrom(msg.sender, address(this), _amount);\n            return true;\n        }\n        uint256 innerLength = asks.length - 1;\n        for (uint256 i = 0; i <= innerLength; i++) {\n            if (_price < asks[innerLength - i].price) {\n                if (i == 0) {\n                    asks.push(\n                        Order({\n                            price: _price,\n                            amount: _amount,\n                            sender: msg.sender\n                        })\n                    );\n                    ERC20(base).transferFrom(\n                        msg.sender,\n                        address(this),\n                        _amount\n                    );\n                    return true;\n                } else {\n                    asks.push(asks[innerLength]);\n                    for (uint256 j = 0; j < i; j++) {\n                        asks[innerLength - j + 1] = asks[innerLength - j];\n                    }\n                    asks[innerLength - i + 1] = Order({\n                        price: _price,\n                        amount: _amount,\n                        sender: msg.sender\n                    });\n                    ERC20(base).transferFrom(\n                        msg.sender,\n                        address(this),\n                        _amount\n                    );\n                    return true;\n                }\n            }\n        }\n        asks.push(asks[innerLength]);\n        for (uint256 k = 0; k < innerLength + 1; k++) {\n            asks[innerLength - k + 1] = asks[innerLength - k];\n        }\n        asks[0] = Order({price: _price, amount: _amount, sender: msg.sender});\n        ERC20(base).transferFrom(msg.sender, address(this), _amount);\n        return true;\n    }\n\n}\n",
  "sourcePath": "/Users/denis/Documents/_Workspace/token-exchange-demo/contracts/Exchange.sol",
  "compiler": {
    "name": "solc",
    "version": "0.5.16+commit.9c3226ce.Emscripten.clang"
  },
  "schemaVersion": "3.0.22",
  "updatedAt": "2020-01-30T10:00:10.326Z",
  "networkType": "ethereum",
  "devdoc": {
    "methods": {}
  },
  "userdoc": {
    "methods": {}
  }
}