{
  "contractName": "Exchange",
  "abi": [
    {
      "inputs": [],
      "payable": false,
      "stateMutability": "nonpayable",
      "type": "constructor"
    },
    {
      "constant": true,
      "inputs": [
        {
          "internalType": "uint256",
          "name": "",
          "type": "uint256"
        }
      ],
      "name": "asks",
      "outputs": [
        {
          "internalType": "uint256",
          "name": "price",
          "type": "uint256"
        },
        {
          "internalType": "uint256",
          "name": "amount",
          "type": "uint256"
        },
        {
          "internalType": "address",
          "name": "sender",
          "type": "address"
        }
      ],
      "payable": false,
      "stateMutability": "view",
      "type": "function"
    },
    {
      "constant": true,
      "inputs": [
        {
          "internalType": "uint256",
          "name": "",
          "type": "uint256"
        }
      ],
      "name": "bids",
      "outputs": [
        {
          "internalType": "uint256",
          "name": "price",
          "type": "uint256"
        },
        {
          "internalType": "uint256",
          "name": "amount",
          "type": "uint256"
        },
        {
          "internalType": "address",
          "name": "sender",
          "type": "address"
        }
      ],
      "payable": false,
      "stateMutability": "view",
      "type": "function"
    },
    {
      "constant": true,
      "inputs": [
        {
          "internalType": "uint256",
          "name": "index",
          "type": "uint256"
        }
      ],
      "name": "getBid",
      "outputs": [
        {
          "internalType": "uint256",
          "name": "",
          "type": "uint256"
        },
        {
          "internalType": "uint256",
          "name": "",
          "type": "uint256"
        }
      ],
      "payable": false,
      "stateMutability": "view",
      "type": "function"
    },
    {
      "constant": true,
      "inputs": [
        {
          "internalType": "uint256",
          "name": "index",
          "type": "uint256"
        }
      ],
      "name": "getAsk",
      "outputs": [
        {
          "internalType": "uint256",
          "name": "",
          "type": "uint256"
        },
        {
          "internalType": "uint256",
          "name": "",
          "type": "uint256"
        }
      ],
      "payable": false,
      "stateMutability": "view",
      "type": "function"
    },
    {
      "constant": false,
      "inputs": [
        {
          "internalType": "uint256",
          "name": "_price",
          "type": "uint256"
        },
        {
          "internalType": "uint256",
          "name": "_amount",
          "type": "uint256"
        }
      ],
      "name": "buy",
      "outputs": [],
      "payable": false,
      "stateMutability": "nonpayable",
      "type": "function"
    },
    {
      "constant": false,
      "inputs": [
        {
          "internalType": "uint256",
          "name": "_price",
          "type": "uint256"
        },
        {
          "internalType": "uint256",
          "name": "_amount",
          "type": "uint256"
        }
      ],
      "name": "sell",
      "outputs": [],
      "payable": false,
      "stateMutability": "nonpayable",
      "type": "function"
    }
  ],
  "bytecode": "0x608060405234801561001057600080fd5b5061125c806100206000396000f3fe608060405234801561001057600080fd5b50600436106100625760003560e01c80630b0c1493146100675780633c889e6f146100995780634423c5f1146100ca5780636b42fbaf146100fc578063d6febde81461012d578063d79875eb14610149575b600080fd5b610081600480360361007c9190810190611072565b610165565b6040516100909392919061117e565b60405180910390f35b6100b360048036036100ae9190810190611072565b6101bc565b6040516100c1929190611155565b60405180910390f35b6100e460048036036100df9190810190611072565b6101f1565b6040516100f39392919061117e565b60405180910390f35b61011660048036036101119190810190611072565b610248565b604051610124929190611155565b60405180910390f35b6101476004803603610142919081019061109b565b61027e565b005b610163600480360361015e919081019061109b565b6102d0565b005b6001818154811061017257fe5b90600052602060002090600302016000915090508060000154908060010154908060020160009054906101000a900473ffffffffffffffffffffffffffffffffffffffff16905083565b60008060008084815481106101cd57fe5b90600052602060002090600302019050806000015481600101549250925050915091565b600081815481106101fe57fe5b90600052602060002090600302016000915090508060000154908060010154908060020160009054906101000a900473ffffffffffffffffffffffffffffffffffffffff16905083565b60008060006001848154811061025a57fe5b90600052602060002090600302019050806000015481600101549250925050915091565b600081116102c1576040517f08c379a00000000000000000000000000000000000000000000000000000000081526004016102b890611135565b60405180910390fd5b6102cb8282610322565b505050565b60008111610313576040517f08c379a000000000000000000000000000000000000000000000000000000000815260040161030a90611135565b60405180910390fd5b61031d82826109c1565b505050565b60008060008054905014156103f657600060405180606001604052808581526020018481526020013373ffffffffffffffffffffffffffffffffffffffff1681525090806001815401808255809150509060018203906000526020600020906003020160009091929091909150600082015181600001556020820151816001015560408201518160020160006101000a81548173ffffffffffffffffffffffffffffffffffffffff021916908373ffffffffffffffffffffffffffffffffffffffff160217905550505050600190506109bb565b6000600160008054905003905060008090505b81811161076b5760008183038154811061041f57fe5b90600052602060002090600302016000015485111561075e57600081141561050857600060405180606001604052808781526020018681526020013373ffffffffffffffffffffffffffffffffffffffff1681525090806001815401808255809150509060018203906000526020600020906003020160009091929091909150600082015181600001556020820151816001015560408201518160020160006101000a81548173ffffffffffffffffffffffffffffffffffffffff021916908373ffffffffffffffffffffffffffffffffffffffff1602179055505050506001925050506109bb565b600080838154811061051657fe5b90600052602060002090600302019080600181540180825580915050906001820390600052602060002090600302016000909192909190915060008201548160000155600182015481600101556002820160009054906101000a900473ffffffffffffffffffffffffffffffffffffffff168160020160006101000a81548173ffffffffffffffffffffffffffffffffffffffff021916908373ffffffffffffffffffffffffffffffffffffffff16021790555050505060008090505b818110156106a3576000818403815481106105ea57fe5b906000526020600020906003020160006001838603018154811061060a57fe5b906000526020600020906003020160008201548160000155600182015481600101556002820160009054906101000a900473ffffffffffffffffffffffffffffffffffffffff168160020160006101000a81548173ffffffffffffffffffffffffffffffffffffffff021916908373ffffffffffffffffffffffffffffffffffffffff16021790555090505080806001019150506105d3565b5060405180606001604052808681526020018581526020013373ffffffffffffffffffffffffffffffffffffffff168152506000600183850301815481106106e757fe5b9060005260206000209060030201600082015181600001556020820151816001015560408201518160020160006101000a81548173ffffffffffffffffffffffffffffffffffffffff021916908373ffffffffffffffffffffffffffffffffffffffff1602179055509050506001925050506109bb565b8080600101915050610409565b50600080828154811061077a57fe5b90600052602060002090600302019080600181540180825580915050906001820390600052602060002090600302016000909192909190915060008201548160000155600182015481600101556002820160009054906101000a900473ffffffffffffffffffffffffffffffffffffffff168160020160006101000a81548173ffffffffffffffffffffffffffffffffffffffff021916908373ffffffffffffffffffffffffffffffffffffffff16021790555050505060008090505b6001820181101561090a5760008183038154811061085157fe5b906000526020600020906003020160006001838503018154811061087157fe5b906000526020600020906003020160008201548160000155600182015481600101556002820160009054906101000a900473ffffffffffffffffffffffffffffffffffffffff168160020160006101000a81548173ffffffffffffffffffffffffffffffffffffffff021916908373ffffffffffffffffffffffffffffffffffffffff1602179055509050508080600101915050610837565b5060405180606001604052808581526020018481526020013373ffffffffffffffffffffffffffffffffffffffff168152506000808154811061094957fe5b9060005260206000209060030201600082015181600001556020820151816001015560408201518160020160006101000a81548173ffffffffffffffffffffffffffffffffffffffff021916908373ffffffffffffffffffffffffffffffffffffffff16021790555090505060019150505b92915050565b6000806001805490501415610a9557600160405180606001604052808581526020018481526020013373ffffffffffffffffffffffffffffffffffffffff1681525090806001815401808255809150509060018203906000526020600020906003020160009091929091909150600082015181600001556020820151816001015560408201518160020160006101000a81548173ffffffffffffffffffffffffffffffffffffffff021916908373ffffffffffffffffffffffffffffffffffffffff16021790555050505060019050611057565b60006001808054905003905060008090505b818111610e0757600181830381548110610abd57fe5b906000526020600020906003020160000154851015610dfa576000811415610ba657600160405180606001604052808781526020018681526020013373ffffffffffffffffffffffffffffffffffffffff1681525090806001815401808255809150509060018203906000526020600020906003020160009091929091909150600082015181600001556020820151816001015560408201518160020160006101000a81548173ffffffffffffffffffffffffffffffffffffffff021916908373ffffffffffffffffffffffffffffffffffffffff160217905550505050600192505050611057565b6001808381548110610bb457fe5b90600052602060002090600302019080600181540180825580915050906001820390600052602060002090600302016000909192909190915060008201548160000155600182015481600101556002820160009054906101000a900473ffffffffffffffffffffffffffffffffffffffff168160020160006101000a81548173ffffffffffffffffffffffffffffffffffffffff021916908373ffffffffffffffffffffffffffffffffffffffff16021790555050505060008090505b81811015610d4057600181840381548110610c8857fe5b90600052602060002090600302016001808386030181548110610ca757fe5b906000526020600020906003020160008201548160000155600182015481600101556002820160009054906101000a900473ffffffffffffffffffffffffffffffffffffffff168160020160006101000a81548173ffffffffffffffffffffffffffffffffffffffff021916908373ffffffffffffffffffffffffffffffffffffffff1602179055509050508080600101915050610c71565b5060405180606001604052808681526020018581526020013373ffffffffffffffffffffffffffffffffffffffff168152506001808385030181548110610d8357fe5b9060005260206000209060030201600082015181600001556020820151816001015560408201518160020160006101000a81548173ffffffffffffffffffffffffffffffffffffffff021916908373ffffffffffffffffffffffffffffffffffffffff160217905550905050600192505050611057565b8080600101915050610aa7565b506001808281548110610e1657fe5b90600052602060002090600302019080600181540180825580915050906001820390600052602060002090600302016000909192909190915060008201548160000155600182015481600101556002820160009054906101000a900473ffffffffffffffffffffffffffffffffffffffff168160020160006101000a81548173ffffffffffffffffffffffffffffffffffffffff021916908373ffffffffffffffffffffffffffffffffffffffff16021790555050505060008090505b60018201811015610fa557600181830381548110610eed57fe5b90600052602060002090600302016001808385030181548110610f0c57fe5b906000526020600020906003020160008201548160000155600182015481600101556002820160009054906101000a900473ffffffffffffffffffffffffffffffffffffffff168160020160006101000a81548173ffffffffffffffffffffffffffffffffffffffff021916908373ffffffffffffffffffffffffffffffffffffffff1602179055509050508080600101915050610ed3565b5060405180606001604052808581526020018481526020013373ffffffffffffffffffffffffffffffffffffffff168152506001600081548110610fe557fe5b9060005260206000209060030201600082015181600001556020820151816001015560408201518160020160006101000a81548173ffffffffffffffffffffffffffffffffffffffff021916908373ffffffffffffffffffffffffffffffffffffffff16021790555090505060019150505b92915050565b60008135905061106c81611202565b92915050565b60006020828403121561108457600080fd5b60006110928482850161105d565b91505092915050565b600080604083850312156110ae57600080fd5b60006110bc8582860161105d565b92505060206110cd8582860161105d565b9150509250929050565b6110e0816111c6565b82525050565b60006110f36020836111b5565b91507f416d6f756e74206d7573742062652067726561746572207468616e207a65726f6000830152602082019050919050565b61112f816111f8565b82525050565b6000602082019050818103600083015261114e816110e6565b9050919050565b600060408201905061116a6000830185611126565b6111776020830184611126565b9392505050565b60006060820190506111936000830186611126565b6111a06020830185611126565b6111ad60408301846110d7565b949350505050565b600082825260208201905092915050565b60006111d1826111d8565b9050919050565b600073ffffffffffffffffffffffffffffffffffffffff82169050919050565b6000819050919050565b61120b816111f8565b811461121657600080fd5b5056fea365627a7a7231582087a363bff9c539f0ef88183c7e5623d2099ead4f7f9d8f0d8e98d3e41c26f0756c6578706572696d656e74616cf564736f6c63430005100040",
  "source": "pragma solidity >=0.4.21 <0.7.0;\npragma experimental ABIEncoderV2;\n\ncontract Exchange {\n    Order[] public bids;\n    Order[] public asks;\n\n    struct Order {\n        uint256 price;\n        uint256 amount;\n        address sender;\n    }\n\n    constructor() public {}\n\n    function getBid(uint256 index) public view returns (uint256, uint256) {\n        Order storage bid = bids[index];\n        return (bid.price, bid.amount);\n    }\n\n    function getAsk(uint256 index) public view returns (uint256, uint256) {\n        Order storage ask = asks[index];\n        return (ask.price, ask.amount);\n    }\n\n    function buy(uint256 _price, uint256 _amount) public {\n        require(_amount > 0, \"Amount must be greater than zero\");\n\n        // if (asks.length > 0 && _price >= asks[asks.length - 1].price) {\n        // Match Orders\n        // Delete Order From Sellbook\n        // Adjust Sum\n        // } else {\n        addToBids(_price, _amount);\n        // }\n    }\n\n    function sell(uint256 _price, uint256 _amount) public {\n        require(_amount > 0, \"Amount must be greater than zero\");\n\n        // if (bids.length > 0 && _price <= bids[bids.length - 1].price) {\n        // Match Orders\n        // Delete Order From BuyBook\n        // Adjust Sum\n        // } else {\n        addToAsks(_price, _amount);\n        // }\n    }\n\n    function addToBids(uint256 _price, uint256 _amount)\n        private\n        returns (bool success)\n    {\n        if (bids.length == 0) {\n            bids.push(\n                Order({price: _price, amount: _amount, sender: msg.sender})\n            );\n            return true;\n        }\n        uint256 innerLength = bids.length - 1;\n        for (uint256 i = 0; i <= innerLength; i++) {\n            if (_price > bids[innerLength - i].price) {\n                if (i == 0) {\n                    bids.push(\n                        Order({\n                            price: _price,\n                            amount: _amount,\n                            sender: msg.sender\n                        })\n                    );\n                    return true;\n                } else {\n                    bids.push(bids[innerLength]);\n                    for (uint256 j = 0; j < i; j++) {\n                        bids[innerLength - j + 1] = bids[innerLength - j];\n                    }\n                    bids[innerLength - i + 1] = Order({\n                        price: _price,\n                        amount: _amount,\n                        sender: msg.sender\n                    });\n                    return true;\n                }\n            }\n        }\n        bids.push(bids[innerLength]);\n        for (uint256 k = 0; k < innerLength + 1; k++) {\n            bids[innerLength - k + 1] = bids[innerLength - k];\n        }\n        bids[0] = Order({price: _price, amount: _amount, sender: msg.sender});\n        return true;\n\n    }\n\n    function addToAsks(uint256 _price, uint256 _amount)\n        private\n        returns (bool success)\n    {\n        if (asks.length == 0) {\n            asks.push(\n                Order({price: _price, amount: _amount, sender: msg.sender})\n            );\n            return true;\n        }\n        uint256 innerLength = asks.length - 1;\n        for (uint256 i = 0; i <= innerLength; i++) {\n            if (_price < asks[innerLength - i].price) {\n                if (i == 0) {\n                    asks.push(\n                        Order({\n                            price: _price,\n                            amount: _amount,\n                            sender: msg.sender\n                        })\n                    );\n                    return true;\n                } else {\n                    asks.push(asks[innerLength]);\n                    for (uint256 j = 0; j < i; j++) {\n                        asks[innerLength - j + 1] = asks[innerLength - j];\n                    }\n                    asks[innerLength - i + 1] = Order({\n                        price: _price,\n                        amount: _amount,\n                        sender: msg.sender\n                    });\n                    return true;\n                }\n            }\n        }\n        asks.push(asks[innerLength]);\n        for (uint256 k = 0; k < innerLength + 1; k++) {\n            asks[innerLength - k + 1] = asks[innerLength - k];\n        }\n        asks[0] = Order({price: _price, amount: _amount, sender: msg.sender});\n        return true;\n    }\n\n}\n",
  "sourcePath": "/Users/denis/Documents/_Workspace/token-exchange-demo/contracts/Exchange.sol",
  "compiler": {
    "name": "solc",
    "version": "0.5.16+commit.9c3226ce.Emscripten.clang"
  },
  "schemaVersion": "3.0.22",
  "updatedAt": "2020-01-30T08:10:34.553Z",
  "networkType": "ethereum",
  "devdoc": {
    "methods": {}
  },
  "userdoc": {
    "methods": {}
  }
}