{
  "contractName": "Exchange",
  "abi": [
    {
      "inputs": [
        {
          "internalType": "address",
          "name": "_base",
          "type": "address"
        },
        {
          "internalType": "address",
          "name": "_quote",
          "type": "address"
        }
      ],
      "payable": false,
      "stateMutability": "nonpayable",
      "type": "constructor"
    },
    {
      "constant": true,
      "inputs": [
        {
          "internalType": "uint256",
          "name": "",
          "type": "uint256"
        }
      ],
      "name": "asks",
      "outputs": [
        {
          "internalType": "uint256",
          "name": "price",
          "type": "uint256"
        },
        {
          "internalType": "uint256",
          "name": "amount",
          "type": "uint256"
        },
        {
          "internalType": "address",
          "name": "sender",
          "type": "address"
        }
      ],
      "payable": false,
      "stateMutability": "view",
      "type": "function"
    },
    {
      "constant": true,
      "inputs": [],
      "name": "base",
      "outputs": [
        {
          "internalType": "address",
          "name": "",
          "type": "address"
        }
      ],
      "payable": false,
      "stateMutability": "view",
      "type": "function"
    },
    {
      "constant": true,
      "inputs": [
        {
          "internalType": "uint256",
          "name": "",
          "type": "uint256"
        }
      ],
      "name": "bids",
      "outputs": [
        {
          "internalType": "uint256",
          "name": "price",
          "type": "uint256"
        },
        {
          "internalType": "uint256",
          "name": "amount",
          "type": "uint256"
        },
        {
          "internalType": "address",
          "name": "sender",
          "type": "address"
        }
      ],
      "payable": false,
      "stateMutability": "view",
      "type": "function"
    },
    {
      "constant": true,
      "inputs": [],
      "name": "quote",
      "outputs": [
        {
          "internalType": "address",
          "name": "",
          "type": "address"
        }
      ],
      "payable": false,
      "stateMutability": "view",
      "type": "function"
    },
    {
      "constant": true,
      "inputs": [
        {
          "internalType": "uint256",
          "name": "index",
          "type": "uint256"
        }
      ],
      "name": "getBid",
      "outputs": [
        {
          "internalType": "uint256",
          "name": "",
          "type": "uint256"
        },
        {
          "internalType": "uint256",
          "name": "",
          "type": "uint256"
        }
      ],
      "payable": false,
      "stateMutability": "view",
      "type": "function"
    },
    {
      "constant": true,
      "inputs": [
        {
          "internalType": "uint256",
          "name": "index",
          "type": "uint256"
        }
      ],
      "name": "getAsk",
      "outputs": [
        {
          "internalType": "uint256",
          "name": "",
          "type": "uint256"
        },
        {
          "internalType": "uint256",
          "name": "",
          "type": "uint256"
        }
      ],
      "payable": false,
      "stateMutability": "view",
      "type": "function"
    },
    {
      "constant": false,
      "inputs": [
        {
          "internalType": "uint256",
          "name": "_price",
          "type": "uint256"
        },
        {
          "internalType": "uint256",
          "name": "_amount",
          "type": "uint256"
        }
      ],
      "name": "buy",
      "outputs": [],
      "payable": false,
      "stateMutability": "nonpayable",
      "type": "function"
    },
    {
      "constant": false,
      "inputs": [
        {
          "internalType": "uint256",
          "name": "_price",
          "type": "uint256"
        },
        {
          "internalType": "uint256",
          "name": "_amount",
          "type": "uint256"
        }
      ],
      "name": "sell",
      "outputs": [],
      "payable": false,
      "stateMutability": "nonpayable",
      "type": "function"
    }
  ],
  "bytecode": "0x608060405234801561001057600080fd5b5060405161260f38038061260f8339818101604052604081101561003357600080fd5b81019080805190602001909291908051906020019092919050505081600260006101000a81548173ffffffffffffffffffffffffffffffffffffffff021916908373ffffffffffffffffffffffffffffffffffffffff16021790555080600360006101000a81548173ffffffffffffffffffffffffffffffffffffffff021916908373ffffffffffffffffffffffffffffffffffffffff160217905550505061252e806100e16000396000f3fe608060405234801561001057600080fd5b50600436106100885760003560e01c80636b42fbaf1161005b5780636b42fbaf14610218578063999b93af14610261578063d6febde8146102ab578063d79875eb146102e357610088565b80630b0c14931461008d5780633c889e6f146101095780634423c5f1146101525780635001f3b5146101ce575b600080fd5b6100b9600480360360208110156100a357600080fd5b810190808035906020019092919050505061031b565b604051808481526020018381526020018273ffffffffffffffffffffffffffffffffffffffff1673ffffffffffffffffffffffffffffffffffffffff168152602001935050505060405180910390f35b6101356004803603602081101561011f57600080fd5b8101908080359060200190929190505050610372565b604051808381526020018281526020019250505060405180910390f35b61017e6004803603602081101561016857600080fd5b81019080803590602001909291905050506103a7565b604051808481526020018381526020018273ffffffffffffffffffffffffffffffffffffffff1673ffffffffffffffffffffffffffffffffffffffff168152602001935050505060405180910390f35b6101d66103fe565b604051808273ffffffffffffffffffffffffffffffffffffffff1673ffffffffffffffffffffffffffffffffffffffff16815260200191505060405180910390f35b6102446004803603602081101561022e57600080fd5b8101908080359060200190929190505050610424565b604051808381526020018281526020019250505060405180910390f35b61026961045a565b604051808273ffffffffffffffffffffffffffffffffffffffff1673ffffffffffffffffffffffffffffffffffffffff16815260200191505060405180910390f35b6102e1600480360360408110156102c157600080fd5b810190808035906020019092919080359060200190929190505050610480565b005b610319600480360360408110156102f957600080fd5b8101908080359060200190929190803590602001909291905050506107f3565b005b6001818154811061032857fe5b90600052602060002090600302016000915090508060000154908060010154908060020160009054906101000a900473ffffffffffffffffffffffffffffffffffffffff16905083565b600080600080848154811061038357fe5b90600052602060002090600302019050806000015481600101549250925050915091565b600081815481106103b457fe5b90600052602060002090600302016000915090508060000154908060010154908060020160009054906101000a900473ffffffffffffffffffffffffffffffffffffffff16905083565b600260009054906101000a900473ffffffffffffffffffffffffffffffffffffffff1681565b60008060006001848154811061043657fe5b90600052602060002090600302019050806000015481600101549250925050915091565b600360009054906101000a900473ffffffffffffffffffffffffffffffffffffffff1681565b600081116104f6576040517f08c379a00000000000000000000000000000000000000000000000000000000081526004018080602001828103825260208152602001807f416d6f756e74206d7573742062652067726561746572207468616e207a65726f81525060200191505060405180910390fd5b600060018054905011801561052f57506001808080549050038154811061051957fe5b9060005260206000209060030201600001548210155b156107e35760006001808080549050038154811061054957fe5b906000526020600020906003020190506000808260010154841415610641578391506105e1600260009054906101000a900473ffffffffffffffffffffffffffffffffffffffff16600360009054906101000a900473ffffffffffffffffffffffffffffffffffffffff16338660020160009054906101000a900473ffffffffffffffffffffffffffffffffffffffff16868a610b66565b600180808054905003815481106105f457fe5b906000526020600020906003020160008082016000905560018201600090556002820160006101000a81549073ffffffffffffffffffffffffffffffffffffffff021916905550506107db565b82600101548410156106da578391508383600101540383600101819055506106d5600260009054906101000a900473ffffffffffffffffffffffffffffffffffffffff16600360009054906101000a900473ffffffffffffffffffffffffffffffffffffffff16338660020160009054906101000a900473ffffffffffffffffffffffffffffffffffffffff16868a610b66565b6107da565b82600101548411156107d95782600101549150826001015484038360010181905550610772600260009054906101000a900473ffffffffffffffffffffffffffffffffffffffff16600360009054906101000a900473ffffffffffffffffffffffffffffffffffffffff16338660020160009054906101000a900473ffffffffffffffffffffffffffffffffffffffff16868a610b66565b6001808080549050038154811061078557fe5b906000526020600020906003020160008082016000905560018201600090556002820160006101000a81549073ffffffffffffffffffffffffffffffffffffffff021916905550506107d78582610d2a565b505b5b5b5050506107ef565b6107ed8282610d2a565b505b5050565b60008111610869576040517f08c379a00000000000000000000000000000000000000000000000000000000081526004018080602001828103825260208152602001807f416d6f756e74206d7573742062652067726561746572207468616e207a65726f81525060200191505060405180910390fd5b600080805490501180156108a3575060006001600080549050038154811061088d57fe5b9060005260206000209060030201600001548211155b15610b5657600080600160008054905003815481106108be57fe5b9060005260206000209060030201905060008082600101548414156109b857839150610956600260009054906101000a900473ffffffffffffffffffffffffffffffffffffffff16600360009054906101000a900473ffffffffffffffffffffffffffffffffffffffff16338660020160009054906101000a900473ffffffffffffffffffffffffffffffffffffffff16868a611835565b60006001600080549050038154811061096b57fe5b906000526020600020906003020160008082016000905560018201600090556002820160006101000a81549073ffffffffffffffffffffffffffffffffffffffff02191690555050610b4e565b8260010154841015610a5157839150838360010154038360010181905550610a4c600260009054906101000a900473ffffffffffffffffffffffffffffffffffffffff16600360009054906101000a900473ffffffffffffffffffffffffffffffffffffffff16338660020160009054906101000a900473ffffffffffffffffffffffffffffffffffffffff16868a611835565b610b4d565b8260010154841115610b4c5782600101549150826001015484039050610ae3600260009054906101000a900473ffffffffffffffffffffffffffffffffffffffff16600360009054906101000a900473ffffffffffffffffffffffffffffffffffffffff16338660020160009054906101000a900473ffffffffffffffffffffffffffffffffffffffff16868a611835565b600060016000805490500381548110610af857fe5b906000526020600020906003020160008082016000905560018201600090556002820160006101000a81549073ffffffffffffffffffffffffffffffffffffffff02191690555050610b4a85826119f9565b505b5b5b505050610b62565b610b6082826119f9565b505b5050565b8473ffffffffffffffffffffffffffffffffffffffff166323b872dd85858486026040518463ffffffff1660e01b8152600401808473ffffffffffffffffffffffffffffffffffffffff1673ffffffffffffffffffffffffffffffffffffffff1681526020018373ffffffffffffffffffffffffffffffffffffffff1673ffffffffffffffffffffffffffffffffffffffff1681526020018281526020019350505050602060405180830381600087803b158015610c2357600080fd5b505af1158015610c37573d6000803e3d6000fd5b505050506040513d6020811015610c4d57600080fd5b8101908080519060200190929190505050508573ffffffffffffffffffffffffffffffffffffffff1663a9059cbb85846040518363ffffffff1660e01b8152600401808373ffffffffffffffffffffffffffffffffffffffff1673ffffffffffffffffffffffffffffffffffffffff16815260200182815260200192505050602060405180830381600087803b158015610ce657600080fd5b505af1158015610cfa573d6000803e3d6000fd5b505050506040513d6020811015610d1057600080fd5b810190808051906020019092919050505050505050505050565b6000806000805490501415610f1957600060405180606001604052808581526020018481526020013373ffffffffffffffffffffffffffffffffffffffff1681525090806001815401808255809150509060018203906000526020600020906003020160009091929091909150600082015181600001556020820151816001015560408201518160020160006101000a81548173ffffffffffffffffffffffffffffffffffffffff021916908373ffffffffffffffffffffffffffffffffffffffff160217905550505050600360009054906101000a900473ffffffffffffffffffffffffffffffffffffffff1673ffffffffffffffffffffffffffffffffffffffff166323b872dd33308686026040518463ffffffff1660e01b8152600401808473ffffffffffffffffffffffffffffffffffffffff1673ffffffffffffffffffffffffffffffffffffffff1681526020018373ffffffffffffffffffffffffffffffffffffffff1673ffffffffffffffffffffffffffffffffffffffff1681526020018281526020019350505050602060405180830381600087803b158015610ed457600080fd5b505af1158015610ee8573d6000803e3d6000fd5b505050506040513d6020811015610efe57600080fd5b8101908080519060200190929190505050506001905061182f565b6000600160008054905003905060008090505b8181116114c457600081830381548110610f4257fe5b9060005260206000209060030201600001548511156114b757600081141561114657600060405180606001604052808781526020018681526020013373ffffffffffffffffffffffffffffffffffffffff1681525090806001815401808255809150509060018203906000526020600020906003020160009091929091909150600082015181600001556020820151816001015560408201518160020160006101000a81548173ffffffffffffffffffffffffffffffffffffffff021916908373ffffffffffffffffffffffffffffffffffffffff160217905550505050600360009054906101000a900473ffffffffffffffffffffffffffffffffffffffff1673ffffffffffffffffffffffffffffffffffffffff166323b872dd33308888026040518463ffffffff1660e01b8152600401808473ffffffffffffffffffffffffffffffffffffffff1673ffffffffffffffffffffffffffffffffffffffff1681526020018373ffffffffffffffffffffffffffffffffffffffff1673ffffffffffffffffffffffffffffffffffffffff1681526020018281526020019350505050602060405180830381600087803b1580156110ff57600080fd5b505af1158015611113573d6000803e3d6000fd5b505050506040513d602081101561112957600080fd5b81019080805190602001909291905050505060019250505061182f565b600080838154811061115457fe5b90600052602060002090600302019080600181540180825580915050906001820390600052602060002090600302016000909192909190915060008201548160000155600182015481600101556002820160009054906101000a900473ffffffffffffffffffffffffffffffffffffffff168160020160006101000a81548173ffffffffffffffffffffffffffffffffffffffff021916908373ffffffffffffffffffffffffffffffffffffffff16021790555050505060008090505b818110156112e15760008184038154811061122857fe5b906000526020600020906003020160006001838603018154811061124857fe5b906000526020600020906003020160008201548160000155600182015481600101556002820160009054906101000a900473ffffffffffffffffffffffffffffffffffffffff168160020160006101000a81548173ffffffffffffffffffffffffffffffffffffffff021916908373ffffffffffffffffffffffffffffffffffffffff1602179055509050508080600101915050611211565b5060405180606001604052808681526020018581526020013373ffffffffffffffffffffffffffffffffffffffff1681525060006001838503018154811061132557fe5b9060005260206000209060030201600082015181600001556020820151816001015560408201518160020160006101000a81548173ffffffffffffffffffffffffffffffffffffffff021916908373ffffffffffffffffffffffffffffffffffffffff160217905550905050600360009054906101000a900473ffffffffffffffffffffffffffffffffffffffff1673ffffffffffffffffffffffffffffffffffffffff166323b872dd33308888026040518463ffffffff1660e01b8152600401808473ffffffffffffffffffffffffffffffffffffffff1673ffffffffffffffffffffffffffffffffffffffff1681526020018373ffffffffffffffffffffffffffffffffffffffff1673ffffffffffffffffffffffffffffffffffffffff1681526020018281526020019350505050602060405180830381600087803b15801561147057600080fd5b505af1158015611484573d6000803e3d6000fd5b505050506040513d602081101561149a57600080fd5b81019080805190602001909291905050505060019250505061182f565b8080600101915050610f2c565b5060008082815481106114d357fe5b90600052602060002090600302019080600181540180825580915050906001820390600052602060002090600302016000909192909190915060008201548160000155600182015481600101556002820160009054906101000a900473ffffffffffffffffffffffffffffffffffffffff168160020160006101000a81548173ffffffffffffffffffffffffffffffffffffffff021916908373ffffffffffffffffffffffffffffffffffffffff16021790555050505060008090505b60018201811015611663576000818303815481106115aa57fe5b90600052602060002090600302016000600183850301815481106115ca57fe5b906000526020600020906003020160008201548160000155600182015481600101556002820160009054906101000a900473ffffffffffffffffffffffffffffffffffffffff168160020160006101000a81548173ffffffffffffffffffffffffffffffffffffffff021916908373ffffffffffffffffffffffffffffffffffffffff1602179055509050508080600101915050611590565b5060405180606001604052808581526020018481526020013373ffffffffffffffffffffffffffffffffffffffff16815250600080815481106116a257fe5b9060005260206000209060030201600082015181600001556020820151816001015560408201518160020160006101000a81548173ffffffffffffffffffffffffffffffffffffffff021916908373ffffffffffffffffffffffffffffffffffffffff160217905550905050600360009054906101000a900473ffffffffffffffffffffffffffffffffffffffff1673ffffffffffffffffffffffffffffffffffffffff166323b872dd33308787026040518463ffffffff1660e01b8152600401808473ffffffffffffffffffffffffffffffffffffffff1673ffffffffffffffffffffffffffffffffffffffff1681526020018373ffffffffffffffffffffffffffffffffffffffff1673ffffffffffffffffffffffffffffffffffffffff1681526020018281526020019350505050602060405180830381600087803b1580156117ed57600080fd5b505af1158015611801573d6000803e3d6000fd5b505050506040513d602081101561181757600080fd5b81019080805190602001909291905050505060019150505b92915050565b8573ffffffffffffffffffffffffffffffffffffffff166323b872dd8585856040518463ffffffff1660e01b8152600401808473ffffffffffffffffffffffffffffffffffffffff1673ffffffffffffffffffffffffffffffffffffffff1681526020018373ffffffffffffffffffffffffffffffffffffffff1673ffffffffffffffffffffffffffffffffffffffff1681526020018281526020019350505050602060405180830381600087803b1580156118f057600080fd5b505af1158015611904573d6000803e3d6000fd5b505050506040513d602081101561191a57600080fd5b8101908080519060200190929190505050508473ffffffffffffffffffffffffffffffffffffffff1663a9059cbb858385026040518363ffffffff1660e01b8152600401808373ffffffffffffffffffffffffffffffffffffffff1673ffffffffffffffffffffffffffffffffffffffff16815260200182815260200192505050602060405180830381600087803b1580156119b557600080fd5b505af11580156119c9573d6000803e3d6000fd5b505050506040513d60208110156119df57600080fd5b810190808051906020019092919050505050505050505050565b6000806001805490501415611be657600160405180606001604052808581526020018481526020013373ffffffffffffffffffffffffffffffffffffffff1681525090806001815401808255809150509060018203906000526020600020906003020160009091929091909150600082015181600001556020820151816001015560408201518160020160006101000a81548173ffffffffffffffffffffffffffffffffffffffff021916908373ffffffffffffffffffffffffffffffffffffffff160217905550505050600260009054906101000a900473ffffffffffffffffffffffffffffffffffffffff1673ffffffffffffffffffffffffffffffffffffffff166323b872dd3330856040518463ffffffff1660e01b8152600401808473ffffffffffffffffffffffffffffffffffffffff1673ffffffffffffffffffffffffffffffffffffffff1681526020018373ffffffffffffffffffffffffffffffffffffffff1673ffffffffffffffffffffffffffffffffffffffff1681526020018281526020019350505050602060405180830381600087803b158015611ba157600080fd5b505af1158015611bb5573d6000803e3d6000fd5b505050506040513d6020811015611bcb57600080fd5b810190808051906020019092919050505050600190506124f3565b60006001808054905003905060008090505b81811161218a57600181830381548110611c0e57fe5b90600052602060002090600302016000015485101561217d576000811415611e1057600160405180606001604052808781526020018681526020013373ffffffffffffffffffffffffffffffffffffffff1681525090806001815401808255809150509060018203906000526020600020906003020160009091929091909150600082015181600001556020820151816001015560408201518160020160006101000a81548173ffffffffffffffffffffffffffffffffffffffff021916908373ffffffffffffffffffffffffffffffffffffffff160217905550505050600260009054906101000a900473ffffffffffffffffffffffffffffffffffffffff1673ffffffffffffffffffffffffffffffffffffffff166323b872dd3330876040518463ffffffff1660e01b8152600401808473ffffffffffffffffffffffffffffffffffffffff1673ffffffffffffffffffffffffffffffffffffffff1681526020018373ffffffffffffffffffffffffffffffffffffffff1673ffffffffffffffffffffffffffffffffffffffff1681526020018281526020019350505050602060405180830381600087803b158015611dc957600080fd5b505af1158015611ddd573d6000803e3d6000fd5b505050506040513d6020811015611df357600080fd5b8101908080519060200190929190505050506001925050506124f3565b6001808381548110611e1e57fe5b90600052602060002090600302019080600181540180825580915050906001820390600052602060002090600302016000909192909190915060008201548160000155600182015481600101556002820160009054906101000a900473ffffffffffffffffffffffffffffffffffffffff168160020160006101000a81548173ffffffffffffffffffffffffffffffffffffffff021916908373ffffffffffffffffffffffffffffffffffffffff16021790555050505060008090505b81811015611faa57600181840381548110611ef257fe5b90600052602060002090600302016001808386030181548110611f1157fe5b906000526020600020906003020160008201548160000155600182015481600101556002820160009054906101000a900473ffffffffffffffffffffffffffffffffffffffff168160020160006101000a81548173ffffffffffffffffffffffffffffffffffffffff021916908373ffffffffffffffffffffffffffffffffffffffff1602179055509050508080600101915050611edb565b5060405180606001604052808681526020018581526020013373ffffffffffffffffffffffffffffffffffffffff168152506001808385030181548110611fed57fe5b9060005260206000209060030201600082015181600001556020820151816001015560408201518160020160006101000a81548173ffffffffffffffffffffffffffffffffffffffff021916908373ffffffffffffffffffffffffffffffffffffffff160217905550905050600260009054906101000a900473ffffffffffffffffffffffffffffffffffffffff1673ffffffffffffffffffffffffffffffffffffffff166323b872dd3330876040518463ffffffff1660e01b8152600401808473ffffffffffffffffffffffffffffffffffffffff1673ffffffffffffffffffffffffffffffffffffffff1681526020018373ffffffffffffffffffffffffffffffffffffffff1673ffffffffffffffffffffffffffffffffffffffff1681526020018281526020019350505050602060405180830381600087803b15801561213657600080fd5b505af115801561214a573d6000803e3d6000fd5b505050506040513d602081101561216057600080fd5b8101908080519060200190929190505050506001925050506124f3565b8080600101915050611bf8565b50600180828154811061219957fe5b90600052602060002090600302019080600181540180825580915050906001820390600052602060002090600302016000909192909190915060008201548160000155600182015481600101556002820160009054906101000a900473ffffffffffffffffffffffffffffffffffffffff168160020160006101000a81548173ffffffffffffffffffffffffffffffffffffffff021916908373ffffffffffffffffffffffffffffffffffffffff16021790555050505060008090505b600182018110156123285760018183038154811061227057fe5b9060005260206000209060030201600180838503018154811061228f57fe5b906000526020600020906003020160008201548160000155600182015481600101556002820160009054906101000a900473ffffffffffffffffffffffffffffffffffffffff168160020160006101000a81548173ffffffffffffffffffffffffffffffffffffffff021916908373ffffffffffffffffffffffffffffffffffffffff1602179055509050508080600101915050612256565b5060405180606001604052808581526020018481526020013373ffffffffffffffffffffffffffffffffffffffff16815250600160008154811061236857fe5b9060005260206000209060030201600082015181600001556020820151816001015560408201518160020160006101000a81548173ffffffffffffffffffffffffffffffffffffffff021916908373ffffffffffffffffffffffffffffffffffffffff160217905550905050600260009054906101000a900473ffffffffffffffffffffffffffffffffffffffff1673ffffffffffffffffffffffffffffffffffffffff166323b872dd3330866040518463ffffffff1660e01b8152600401808473ffffffffffffffffffffffffffffffffffffffff1673ffffffffffffffffffffffffffffffffffffffff1681526020018373ffffffffffffffffffffffffffffffffffffffff1673ffffffffffffffffffffffffffffffffffffffff1681526020018281526020019350505050602060405180830381600087803b1580156124b157600080fd5b505af11580156124c5573d6000803e3d6000fd5b505050506040513d60208110156124db57600080fd5b81019080805190602001909291905050505060019150505b9291505056fea265627a7a72315820d578b1207f9baf6ebdb46714cc84ef8feeb50856d9192239abcf8379d8b033cc64736f6c63430005100032",
  "source": "pragma solidity >=0.4.21 <0.7.0;\n\ninterface ERC20 {\n    function totalSupply() external view returns (uint256);\n    function balanceOf(address tokenOwner)\n        external\n        view\n        returns (uint256 balance);\n    function allowance(address tokenOwner, address spender)\n        external\n        view\n        returns (uint256 remaining);\n    function transfer(address to, uint256 tokens)\n        external\n        returns (bool success);\n    function approve(address spender, uint256 tokens)\n        external\n        returns (bool success);\n    function transferFrom(address from, address to, uint256 tokens)\n        external\n        returns (bool success);\n    event Transfer(address indexed from, address indexed to, uint256 tokens);\n    event Approval(\n        address indexed tokenOwner,\n        address indexed spender,\n        uint256 tokens\n    );\n}\n\ncontract Exchange {\n    Order[] public bids;\n    Order[] public asks;\n\n    address public base;\n    address public quote;\n\n    struct Order {\n        uint256 price;\n        uint256 amount;\n        address sender;\n    }\n\n    constructor(address _base, address _quote) public {\n        base = _base;\n        quote = _quote;\n    }\n\n    function getBid(uint256 index) public view returns (uint256, uint256) {\n        Order storage bid = bids[index];\n        return (bid.price, bid.amount);\n    }\n\n    function getAsk(uint256 index) public view returns (uint256, uint256) {\n        Order storage ask = asks[index];\n        return (ask.price, ask.amount);\n    }\n\n    function buy(uint256 _price, uint256 _amount) public {\n        require(_amount > 0, \"Amount must be greater than zero\");\n\n        if (asks.length > 0 && _price >= asks[asks.length - 1].price) {\n            Order storage ask = asks[asks.length - 1];\n\n            uint256 transferAmount;\n            uint256 toAdd;\n\n            if (_amount == ask.amount) {\n                transferAmount = _amount;\n                swapToBuy(\n                    base,\n                    quote,\n                    msg.sender,\n                    ask.sender,\n                    transferAmount,\n                    _price\n                );\n                delete asks[asks.length - 1];\n            } else if (_amount < ask.amount) {\n                transferAmount = _amount;\n                ask.amount = ask.amount - _amount;\n                swapToBuy(\n                    base,\n                    quote,\n                    msg.sender,\n                    ask.sender,\n                    transferAmount,\n                    _price\n                );\n            } else if (_amount > ask.amount) {\n                transferAmount = ask.amount;\n                ask.amount = _amount - ask.amount;\n                swapToBuy(\n                    base,\n                    quote,\n                    msg.sender,\n                    ask.sender,\n                    transferAmount,\n                    _price\n                );\n                delete asks[asks.length - 1];\n                addToBids(_price, toAdd);\n            }\n        } else {\n            addToBids(_price, _amount);\n        }\n    }\n\n    function sell(uint256 _price, uint256 _amount) public {\n        require(_amount > 0, \"Amount must be greater than zero\");\n\n        if (bids.length > 0 && _price <= bids[bids.length - 1].price) {\n            Order storage bid = bids[bids.length - 1];\n\n            uint256 transferAmount;\n            uint256 toAdd;\n\n            if (_amount == bid.amount) {\n                transferAmount = _amount;\n                swapToSell(\n                    base,\n                    quote,\n                    msg.sender,\n                    bid.sender,\n                    transferAmount,\n                    _price\n                );\n                delete bids[bids.length - 1];\n            } else if (_amount < bid.amount) {\n                transferAmount = _amount;\n                bid.amount = bid.amount - _amount;\n                swapToSell(\n                    base,\n                    quote,\n                    msg.sender,\n                    bid.sender,\n                    transferAmount,\n                    _price\n                );\n            } else if (_amount > bid.amount) {\n                transferAmount = bid.amount;\n                toAdd = _amount - bid.amount;\n                swapToSell(\n                    base,\n                    quote,\n                    msg.sender,\n                    bid.sender,\n                    transferAmount,\n                    _price\n                );\n                delete bids[bids.length - 1];\n                addToAsks(_price, toAdd);\n            }\n        } else {\n            addToAsks(_price, _amount);\n        }\n    }\n\n    function addToBids(uint256 _price, uint256 _amount)\n        private\n        returns (bool success)\n    {\n        if (bids.length == 0) {\n            bids.push(\n                Order({price: _price, amount: _amount, sender: msg.sender})\n            );\n            ERC20(quote).transferFrom(\n                msg.sender,\n                address(this),\n                _amount * _price\n            );\n            return true;\n        }\n        uint256 innerLength = bids.length - 1;\n        for (uint256 i = 0; i <= innerLength; i++) {\n            if (_price > bids[innerLength - i].price) {\n                if (i == 0) {\n                    bids.push(\n                        Order({\n                            price: _price,\n                            amount: _amount,\n                            sender: msg.sender\n                        })\n                    );\n                    ERC20(quote).transferFrom(\n                        msg.sender,\n                        address(this),\n                        _amount * _price\n                    );\n                    return true;\n                } else {\n                    bids.push(bids[innerLength]);\n                    for (uint256 j = 0; j < i; j++) {\n                        bids[innerLength - j + 1] = bids[innerLength - j];\n                    }\n                    bids[innerLength - i + 1] = Order({\n                        price: _price,\n                        amount: _amount,\n                        sender: msg.sender\n                    });\n                    ERC20(quote).transferFrom(\n                        msg.sender,\n                        address(this),\n                        _amount * _price\n                    );\n                    return true;\n                }\n            }\n        }\n        bids.push(bids[innerLength]);\n        for (uint256 k = 0; k < innerLength + 1; k++) {\n            bids[innerLength - k + 1] = bids[innerLength - k];\n        }\n        bids[0] = Order({price: _price, amount: _amount, sender: msg.sender});\n        ERC20(quote).transferFrom(msg.sender, address(this), _amount * _price);\n        return true;\n\n    }\n\n    function addToAsks(uint256 _price, uint256 _amount)\n        private\n        returns (bool success)\n    {\n        if (asks.length == 0) {\n            asks.push(\n                Order({price: _price, amount: _amount, sender: msg.sender})\n            );\n            ERC20(base).transferFrom(msg.sender, address(this), _amount);\n            return true;\n        }\n        uint256 innerLength = asks.length - 1;\n        for (uint256 i = 0; i <= innerLength; i++) {\n            if (_price < asks[innerLength - i].price) {\n                if (i == 0) {\n                    asks.push(\n                        Order({\n                            price: _price,\n                            amount: _amount,\n                            sender: msg.sender\n                        })\n                    );\n                    ERC20(base).transferFrom(\n                        msg.sender,\n                        address(this),\n                        _amount\n                    );\n                    return true;\n                } else {\n                    asks.push(asks[innerLength]);\n                    for (uint256 j = 0; j < i; j++) {\n                        asks[innerLength - j + 1] = asks[innerLength - j];\n                    }\n                    asks[innerLength - i + 1] = Order({\n                        price: _price,\n                        amount: _amount,\n                        sender: msg.sender\n                    });\n                    ERC20(base).transferFrom(\n                        msg.sender,\n                        address(this),\n                        _amount\n                    );\n                    return true;\n                }\n            }\n        }\n        asks.push(asks[innerLength]);\n        for (uint256 k = 0; k < innerLength + 1; k++) {\n            asks[innerLength - k + 1] = asks[innerLength - k];\n        }\n        asks[0] = Order({price: _price, amount: _amount, sender: msg.sender});\n        ERC20(base).transferFrom(msg.sender, address(this), _amount);\n        return true;\n    }\n\n    function swapToBuy(\n        address _base,\n        address _quote,\n        address _sender,\n        address _receiver,\n        uint256 _amount,\n        uint256 _price\n    ) private {\n        ERC20(_quote).transferFrom(_sender, _receiver, _amount * _price);\n        ERC20(_base).transfer(_sender, _amount);\n    }\n\n    function swapToSell(\n        address _base,\n        address _quote,\n        address _sender,\n        address _receiver,\n        uint256 _amount,\n        uint256 _price\n    ) private {\n        ERC20(_base).transferFrom(_sender, _receiver, _amount);\n        ERC20(_quote).transfer(_sender, _amount * _price);\n    }\n}\n",
  "sourcePath": "/Users/denis/Documents/_Workspace/token-exchange-demo/contracts/Exchange.sol",
  "compiler": {
    "name": "solc",
    "version": "0.5.16+commit.9c3226ce.Emscripten.clang"
  },
  "schemaVersion": "3.0.22",
  "updatedAt": "2020-01-30T14:10:25.344Z",
  "networkType": "ethereum",
  "devdoc": {
    "methods": {}
  },
  "userdoc": {
    "methods": {}
  }
}